:100000000C94F8010C9429020C9429020C942902F6
:100010000C9429020C9429020C9429020C942902B4
:100020000C9429020C9429020C9429020C942902A4
:100030000C9429020C9429020C9429020C94290294
:100040000C9429020C9429020C9429020C94290284
:100050000C9429020C9429020C9429020C94F7099F
:100060000C9429020C946B0A0C94410A0C942902FA
:100070000C9429020C9429020C9429020C94290254
:100080000C9429020C9429020C9429020C94290244
:100090000C9429020C9429020C9429020C94290234
:1000A0000C9429020C9429020C9429020C94290224
:1000B0000C9429020C9429020C9429020C94290214
:1000C0000C9429020C9429020C9429020C94290204
:1000D0000C9429020C9429020C9429020C942902F4
:1000E0000C9429020C9443050C9404050C94A10A69
:1000F0000C9487030C9476020C942E040C94200527
:100100000C945E020C942A050C9453020C94780310
:100110000C9439050C944B030C9489020C94DE0466
:100120000C9457050C94CF040C9464020C949B031C
:100130000C9461050C944F020C94E8040C94680232
:100140000C948E020C946B050C9457020C94D904F9
:100150000C948A020C94F2040C9480020C947C029D
:100160000C9403110C9416050C9449020C9484020F
:100170000C94A9030C946E020C945B020C940C0575
:100180000C94FC040C944D050C9472020C94E10345
:100190004E414E494E495459494E46CDCCCC3D0A6C
:1001A000D7233C17B7D13877CC2B329595E6241F4F
:1001B000B14F0A000020410000C84200401C462008
:1001C000BCBE4CCA1B0E5AAEC59D74000000000098
:1001D000000000010101010101010102020202020D
:1001E00002020303030303040404050505050506D1
:1001F0000606060707070808080808090A0A0A0A7F
:100200000B0B0C0C0C0C0D0D0D0E0E0F0F0F101117
:10021000111111121213141414141516161717179E
:100220001819191A1A1B1B1C1C1D1E1E1F1F20210A
:10023000212223232425252626272829292A2B2C59
:100240002D2D2E2F2F303132333435363637383886
:10025000393A3B3C3D3E3F40414243444545464799
:10026000494A4B4C4D4E4F50515254555657595A7E
:100270005B5D5E5F60616264656667696A6C6D6E36
:100280006F7173757677797A7B7C7F8082838586C0
:1002900088898B8C8F9192939497999A9C9E9FA218
:1002A000A3A5A7A9ABADAEB0B3B4B6B9BABCBEC036
:1002B000C2C4C7C9CACDCFD1D3D6D8DADCDFE1E218
:1002C000E6E7EBECF0F1F5F6FAFBFF000020002387
:1002D00000260029002C002F00320000010000033E
:1002E000010601090100000A0B02090C0D0E0807A6
:1002F00003040100000000000000000000000000F6
:1003000000000000000000000000000000000000ED
:1003100000121110000000000000000000000000AA
:100320000000000000000000000000000021002488
:100330000027002A002D00300033000101000004D6
:100340000107010A0100002200250028002B002ED1
:10035000003100340002010000050108010B010515
:10036000050505070508080808020202020A0A082E
:100370000804040404010101010101010103030354
:100380000303030303040707070C0C0C0C0C0C0CF1
:100390000C0202020206060606060606060B0B0BF8
:1003A0000B0B0B0B0B010210202008081020401033
:1003B0002040800201020108040201010204081029
:1003C0002040808040201008040201800402018047
:1003D0004020100804020108040201010204081070
:1003E000204080010204081020408000A10A03116F
:1003F00011241FBECFEFD1E2DEBFCDBF00E00CBFA6
:1004000012E0A0E0B2E0E0E4FFE200E00BBF02C0D7
:1004100007900D92A633B107D9F724E0A6E3B2E026
:1004200001C01D92AA3CB207E1F711E0C7EFD1E08D
:1004300000E006C021970109802FFE010E942814C8
:10044000C63FD10780E00807A9F70E946A0B0C9409
:100450008E170C9400008150823108F05AC0E82FAA
:10046000F0E08827E95CFD4F8F4F0C942814570269
:100470005B0249024F02530289025E026402680273
:100480006E02720276027C028002890284028A0273
:100490008E02809180008F778093800008958091F4
:1004A00080008F7DF9CF80918000877FF5CF84B564
:1004B0008F7784BD089584B58F7DFBCF8091B00088
:1004C0008F778093B00008958091B0008F7DF9CF31
:1004D000809190008F778093900008958091900094
:1004E0008F7DF9CF80919000877FF5CF8091A0001C
:1004F0008F778093A00008958091A0008F7DF9CF21
:100500008091A000877FF5CF809120018F77809325
:1005100020010895809120018F7DF9CF80912001E5
:10052000877FF5CFCF93DF93282F30E0F901EB5190
:10053000FD4F8491F901EB55FC4FD491F901E15A3B
:10054000FC4FC491CC23A1F081110E942B02EC2F0F
:10055000F0E0EE0FFF1FE553FD4FA591B491EC9134
:10056000ED2381E090E009F480E0DF91CF910895E0
:1005700080E090E0FACF1F93CF93DF93282F30E0F5
:10058000F901EB51FD4F8491F901EB55FC4FD491EA
:10059000F901E15AFC4FC491CC23A9F0162F811127
:1005A0000E942B02EC2FF0E0EE0FFF1FEB5BFC4FE5
:1005B000A591B4918FB7F894EC91111108C0D09522
:1005C000DE23DC938FBFDF91CF911F910895DE2B47
:1005D000F8CFCF93DF9390E0FC01EB55FC4F2491D3
:1005E000815A9C4FFC0184918823D1F090E0880FC0
:1005F000991FFC01E55DFC4FA591B491FC01EB5BFB
:10060000FC4FC591D49161110EC09FB7F8948C91A5
:10061000E22FE0958E238C932881E223E8839FBF0D
:10062000DF91CF9108958FB7F894EC91E22BEC9382
:100630008FBFF6CF3FB7F89480914003909141036C
:10064000A0914203B091430326B5A89B05C02F3F5C
:1006500019F00196A11DB11D3FBFBA2FA92F982FE8
:100660008827BC01CD01620F711D811D911D42E0E3
:10067000660F771F881F991F4A95D1F708952FB7E6
:10068000F89460913C0370913D0380913E039091FA
:100690003F032FBF0895AF92BF92CF92DF92EF92A8
:1006A000FF920F931F93CF93DF936C017B018B011C
:1006B000040F151FEB015E01AE18BF08C017D1076C
:1006C00059F06991D601ED91FC910190F081E02DF6
:1006D000C6011995892B79F7C501DF91CF911F913B
:1006E0000F91FF90EF90DF90CF90BF90AF90089563
:1006F000FC01538D448D252F30E0842F90E0821B28
:10070000930B541710F0CF96089501970895FC01AC
:10071000918D828D981761F0A28DAE0FBF2FB11D04
:100720005D968C91928D9F5F9F73928F90E008955C
:100730008FEF9FEF0895FC01918D828D981731F016
:10074000828DE80FF11D858D90E008958FEF9FEF6A
:100750000895FC01918D228D892F90E0805C9F4F40
:10076000821B91098F739927089584E493E00E9476
:10077000A90321E0892B09F420E0822F0895FC01D0
:10078000A48DA80FB92FB11DA35ABF4F2C91848DF2
:1007900090E001968F739927848FA689B7892C934F
:1007A000A089B1898C91837080648C93938D848DA2
:1007B000981306C00288F389E02D80818F7D8083A5
:1007C0000895EF92FF920F931F93CF93DF93EC0165
:1007D00081E0888F9B8D8C8D98131AC0E889F989E8
:1007E000808185FF15C09FB7F894EE89FF896083EB
:1007F000E889F98980818370806480839FBF81E06C
:1008000090E0DF91CF911F910F91FF90EF900895AD
:10081000F62E0B8D10E00F5F1F4F0F731127E02E88
:100820008C8D8E110CC00FB607FCFACFE889F989C0
:10083000808185FFF5CFCE010E94BF03F1CFEB8D04
:10084000EC0FFD2FF11DE35AFF4FF0829FB7F89494
:100850000B8FEA89FB8980818062CFCFCF93DF93B2
:10086000EC01888D8823B9F0AA89BB89E889F989C8
:100870008C9185FD03C0808186FD0DC00FB607FCFD
:10088000F7CF8C9185FFF2CF808185FFEDCFCE0130
:100890000E94BF03E9CFDF91CF91089580E090E0FF
:1008A000892B29F00E94B50381110E94000080E08D
:1008B00090E0892B49F080E090E0892B29F00E949C
:1008C000000081110E94000080E090E0892B49F037
:1008D00080E090E0892B29F00E94000081110E94A5
:1008E000000080E090E0892B49F080E090E0892BC7
:1008F00029F00E94000081110C9400000895FF92DD
:100900000F931F93CF93DF938C01F42EE901FC0129
:1009100080858F3F11F00E94BB02F80181858F3FD7
:1009200019F06F2D0E94BB02F80112851F3F09F4D8
:100930003AC061E0812F0E94E902209749F460E00B
:10094000812FDF91CF911F910F91FF900C94BB02EB
:10095000CF3FD10511F461E0F3CFE12FF0E0EB518F
:10096000FD4FE491E150E23108F0B5C0F0E0882796
:10097000E354FB4F8F4F0C942814CF04D904DE04AA
:10098000E804F2046B05FC0404050C0516052005BB
:100990002A05390543056B054D055705610584B5E5
:1009A000806884BDC7BDDF91CF911F910F91FF90EB
:1009B000089584B5806284BDC8BDF5CF8091800064
:1009C000806880938000D0938900C0938800EBCF2B
:1009D00080918000806280938000D0938B00C093D0
:1009E0008A00E1CF80918000886080938000D0935E
:1009F0008D00C0938C00D7CF8091B0008068809329
:100A0000B000C093B300CFCF8091B00080628093DC
:100A1000B000C093B400C7CF8091900080688093ED
:100A20009000D0939900C0939800BDCF8091900022
:100A3000806280939000D0939B00C0939A00B3CFC4
:100A400080919000886080939000D0939D00C09327
:100A50009C00A9CF8091A00080688093A000809125
:100A6000A0008F7B8093A000D093A900C093A80022
:100A70009ACF8091A00080628093A000D093AB00B9
:100A8000C093AA0090CF8091A00088608093A000BE
:100A9000D093AD00C093AC0086CF809120018068D8
:100AA00080932001D0932901C09328017CCF8091AD
:100AB0002001806280932001D0932B01C0932A01F2
:100AC00072CF80912001886080932001D0932D0106
:100AD000C0932C0168CFC038D1050CF03CCF2FCF8C
:100AE000EF92FF920F931F93CF93DF93EC018B0153
:100AF0007A018D899E89892BF1F089899A898617D7
:100B00009707C9F07A8B698B61E08C85811101C0F0
:100B100060E030E020E0462FCE010E947F048D8906
:100B20009E898230910538F0880F991F880F991F90
:100B300005970197F1F78B85882331F00115110591
:100B400031F10130110591F00130110501F170F022
:100B50000230110509F445C00330110589F1DF9118
:100B6000CF911F910F91FF90EF9008958C8541E0F8
:100B7000811140E061E0811101C060E09701CE0188
:100B80000E947F0481E090E09F838E83E8CF8B8971
:100B90009C89019731F48D859E859C012E193F0912
:100BA00079018C8541E0811101C040E061E0811153
:100BB00060E09701CE010E947F048FEF9FEFE4CFAA
:100BC0008C8530E020E0811102C02FEF30E061E041
:100BD000811160E0462FCE010E947F041F821E8299
:100BE000BECF2C8561E0211101C060E04FEF2403EE
:100BF00090011124EFCFFC01708B678740815181F8
:100C00000C9470050F93CF93DF93EC01862F19821C
:100C100018821B821A821D821C821F821E821B86E2
:100C20006FEF70E07E876D87188A1F861A8A198A8F
:100C30001E8A1D8A94E19F8B188E198E1A8E1B8E28
:100C400062E070E07C8B6B8B888749872A8791E014
:100C500009270C8761E00E94E90289858F3F19F01E
:100C600061E00E94E9028A858F3F19F061E00E94ED
:100C7000E90262E070E0CE01DF91CF910F910C9418
:100C8000FB058F929F92AF92BF92EF92FF920F93CC
:100C90001F93CF93DF93EC010F8518890230110564
:100CA0000CF08CC08D859E8522273327281B390B9D
:100CB000621773072CF09C01681779070CF49B01ED
:100CC000398328838F3F910579F074F0C90137FF8C
:100CD00004C088279927821B930B8F3F910521F42D
:100CE0002F5F3F4F398328836115710589F450E0E8
:100CF00040E062E070E0CE01DF91CF911F910F9153
:100D0000FF90EF90BF90AF909F908F900C947005E4
:100D10009B01EC80FD8068817981121613062CF509
:100D2000E114F104F1F0072E000C880B990B0E94DE
:100D300091122C8D3D8D4E8D5F8D0E94F0124B01D6
:100D40005C01B701FF0C880B990B0E9491129B016B
:100D5000AC01C501B4010E944C140E942A1579838C
:100D6000688348815981B801C6CFE114F104F1F0DC
:100D7000072E000C880B990B0E9491122C8D3D8D33
:100D80004E8D5F8D0E94F0124B015C01B701FF0C8C
:100D9000880B990B0E9491129B01AC01C501B40113
:100DA0000E944B140E942A157983688348815981D7
:100DB00051954195510961E070E09DCFDF91CF9150
:100DC0001F910F91FF90EF90BF90AF909F908F90E9
:100DD00008953F924F925F926F927F928F929F926F
:100DE000AF92BF92CF92DF92EF92FF920F931F9339
:100DF000CF93DF9300D01F921F92CDB7DEB7FA01D9
:100E0000FF27E553FE4F84907727FB01E553FE4F04
:100E10000491FC01FF27E553FE4FE490E092E503C7
:100E20000093E6038092E7038091F903E091F103D8
:100E3000F091F2039081982B9093FB039081809521
:100E400089238093FC033090E8033092E903C0903B
:100E5000EF03D090F0032E2D30E03D832C8310E083
:100E6000912CC114D10409F487C0A32CB12CA50185
:100E70004F5F5F4F249FC001259F900D349F900DC1
:100E80001124892F9927049F2001059F500C149F3E
:100E9000500C1124452C5524712C612C480E591EE0
:100EA000611C711C849EC001859E900D949E900DC6
:100EB0001124892F9927480E591E611C711C552732
:100EC00077FC5A95472D362D252DA091E103B09141
:100ED000E2030E94DB1323E030E040E050E00E9498
:100EE000B11329013A018091E3039091E403411485
:100EF000510461047104F1F168EE73E00E9414146E
:100F0000CB01072E000CAA0BBB0B840D951DA61D53
:100F1000B71D96010D2C000C440B550B821793073F
:100F2000A407B5073CF1A601461B570BBA01072ED3
:100F3000000C880B990B0E9491126B017C01B5018A
:100F4000BB0C880B990B0E9491129B01AC01C7014D
:100F5000B6010E94F0125B016C01C301B2010E9454
:100F600091129B01AC01C601B5010E94B8140E9408
:100F70003115362E3092E9038091E90390E0019615
:100F80004C815D81489F9001499F300D589F300DE5
:100F900011243A83089F9001099F300D189F300D4E
:100FA00011243983889E9001899E300D989E300DC2
:100FB00011243B838FB78093FD03F8945091FB037A
:100FC0002091FC03A091F103B091F203FE01319650
:100FD000CE010496619138E05C9367FF2C93660F15
:100FE00043E04A95F1F700002C933A95A9F78E1744
:100FF0009F0781F78091FD038FBF0F900F900F9097
:101000000F900F90DF91CF911F910F91FF90EF9074
:10101000DF90CF90BF90AF909F908F907F906F9018
:101020005F904F903F900895FC0101900020E9F7F8
:101030003197AF01481B590BBC0184E493E00C9439
:101040004B030C9414088F929F92AF92BF92CF9251
:10105000DF92EF92FF920F931F93CF93DF93CDB761
:10106000DEB7A1970FB6F894DEBF0FBECDBF6C01FF
:10107000990FEE08FF08F7FE41C06DE284E493E0AB
:101080000E94E1038C0122273327A9012C193D0975
:101090004E095F0919A2CE0181967C019AE0892E42
:1010A000912CA12CB12CCA01B901A50194010E9477
:1010B000E313605DF70162937F012115310541055E
:1010C000510589F790E080E0309719F0CF010E9438
:1010D0001408800F911FA1960FB6F894DEBF0FBEC3
:1010E000CDBFDF91CF911F910F91FF90EF90DF90D7
:1010F000CF90BF90AF909F908F900895A7019601D9
:1011000019A28E010F5D1F4F8AE0C82ED12CE12C51
:10111000F12CCA01B901A70196010E94E313605D99
:10112000F80162938F01211531054105510589F7B9
:1011300090E080E0309779F2CF010E941408CBCF85
:10114000FC0180819181009711F00C94FC150895A9
:101150000F931F93CF93DF93FC0104811581011539
:10116000110539F4FB011082DF91CF911F910F918E
:1011700008950F31110510F00FE110E0EB01FC01B3
:1011800060817181A801CE010E947F17C00FD11F1D
:101190001882EACFFC0124813581232B39F421E028
:1011A000FB018081882349F020E007C08081918184
:1011B0000E946F1721E0892BB9F7822F08950F93B2
:1011C0001F93CF93DF93EC0188819981009759F0A9
:1011D0002A813B812617370730F081E0DF91CF91DC
:1011E0001F910F9108958B016F5F7F4F0E948516AD
:1011F000009759F0998388831B830A832C813D8152
:10120000232B59F7FC011082E8CF80E0E7CFEF9263
:10121000FF920F931F93CF93DF93EC017B018A0121
:10122000BA010E94DF0828813981811114C021157B
:10123000310519F0C9010E94FC15198218821D821E
:101240001C821B821A82CE01DF91CF911F910F91D8
:10125000FF90EF9008951D830C83B701C9010E9490
:101260007817F1CF8F929F92AF92BF92CF92DF9279
:10127000EF92FF920F931F93CF93DF93EC018B01BB
:10128000FB01C480D580D60111972FEF3FEFB12C21
:10129000A12C90E080E070E060E0A817B9072CF185
:1012A0004617570734F1FC0131967F018C159D05D7
:1012B00060F4F801808091808114910431F0F40190
:1012C000E80FF91FE081EB3319F0A817B90759F4BB
:1012D0006F5F7F4F5901FFEFAF1ABF0A9701A81741
:1012E000B90709F09C01C701D8CF461757070CF082
:1012F00057C069012A153B0510F065015901198293
:1013000018821B821A821D821C8250E040E060E23B
:1013100072E0CE010E940709F801E480F580CE1446
:10132000DF0418F5AE14BF0408F47501F8016081FC
:101330007181FB01EE0DFF1DB08010826C0D7D1DD3
:101340006115710501F1FB0101900020E9F731976A
:10135000AF01461B570BCE010E940709F80180819F
:101360009181E80EF91EF701B082CE01DF91CF9195
:101370001F910F91FF90EF90DF90CF90BF90AF90B3
:101380009F908F90089588819981009711F00E9415
:10139000FC15198218821D821C821B821A82DECFE4
:1013A000198218821B821A821D821C8250E040E042
:1013B00060E272E0CE010E940709D7CFFC011182E2
:1013C00010821382128215821482F4E08E3B9F07F2
:1013D00069F06091BE047091BF046115710531F030
:1013E0004091C2045091C3040C94070908951F92C0
:1013F0000F920FB60F9211242F933F938F939F93C9
:10140000AF93BF9380913C0390913D03A0913E0325
:10141000B0913F0330913B0323E0230F2D3758F564
:101420000196A11DB11D20933B0380933C03909333
:101430003D03A0933E03B0933F03809140039091FE
:101440004103A0914203B09143030196A11DB11D38
:101450008093400390934103A0934203B0934303CE
:10146000BF91AF919F918F913F912F910F900FBEA0
:101470000F901F90189526E8230F0296A11DB11D0D
:10148000D2CF1F920F920FB60F9211240BB60F926C
:101490002F933F934F935F936F937F938F939F937C
:1014A000AF93BF93EF93FF9384E493E00E94BF0355
:1014B000FF91EF91BF91AF919F918F917F916F912C
:1014C0005F914F913F912F910F900BBE0F900FBEE8
:1014D0000F901F9018951F920F920FB60F92112424
:1014E0000BB60F922F938F939F93EF93FF93E091FF
:1014F0005403F09155038081E0915A03F0915B030E
:1015000082FD1DC0908180915D038F5F8F7320915C
:101510005E03821741F0E0915D03F0E0EC5BFC4F6D
:10152000958F80935D03FF91EF919F918F912F9104
:101530000F900BBE0F900FBE0F901F9018958081DB
:10154000F2CF0F93CF93DF93E4E4F3E013821282A0
:1015500088EE93E0A0E0B0E084839583A683B78310
:101560008AE092E09183808385EC90E09587848780
:1015700084EC90E09787868780EC90E0918B808B5D
:1015800081EC90E0938B828B82EC90E0958B848B46
:1015900086EC90E0978B868B118E128E138E148EB4
:1015A000EEEBF4E011821082138212821582148213
:1015B00050E040E060E272E0CF010E94070900E0E5
:1015C00024E043E062E08EE994E00E94020601E03C
:1015D00027E046E065E08EE794E00E94020628E0FE
:1015E0004FE16EE18EE594E00E94020629E041E2BF
:1015F00060E28EE394E00E9402062AE043E262E2A7
:101600008EE194E00E9402062BE045E264E28EEF58
:1016100093E00E940206A1EEB3E02EE230E01196C4
:101620003C932E9380ED97E013969C938E931297A4
:1016300082E317968C93179718968C9318971996A0
:101640001C9219971A961C921A971B961C921B971C
:101650001C961C921C971D961C921D971F961C92FF
:101660001E921E978FB75C968C935C97E1EBF3E02C
:10167000449158964C9358978BE693E0FC01549113
:10168000E52FF0E0EE0FFF1FEB5BFC4F65917491CF
:1016900051967C936E935097FC018491E82FF0E073
:1016A000EE0FFF1FE55DFC4FC591D4915396DC937F
:1016B000CE935297E8814E2B488311963C932E93FC
:1016C0008CE697E013969C938E931297DF91CF91BF
:1016D0000F910895CF93DF93CDB7DEB7A8970FB6DC
:1016E000F894DEBF0FBECDBF789484B5826084BD10
:1016F00084B5816084BD85B5826085BD85B5816016
:1017000085BD80916E00816080936E001092810093
:10171000809181008260809381008091810081604E
:10172000809381008091800081608093800080910F
:10173000B10084608093B1008091B000816080939B
:10174000B00080919100826080939100809191001F
:1017500081608093910080919000816080939000DF
:101760008091A10082608093A1008091A10081609E
:101770008093A1008091A00081608093A00080915F
:1017800021018260809321018091210181608093F9
:1017900021018091200181608093200180917A0055
:1017A000846080937A0080917A00826080937A00CE
:1017B00080917A00816080937A0080917A008068BD
:1017C00080937A001092C100E0915403F091550388
:1017D00082E08083E0915003F09151031082E09108
:1017E0005203F09153038FEC808310925C03E091DD
:1017F0005803F091590386E08083E0915603F091FD
:101800005703808180618083E0915603F0915703F4
:10181000808188608083E0915603F0915703808136
:1018200080688083E0915603F091570380818F7D1B
:10183000808360E086E20E94E90260E087E20E9425
:10184000E90260E088E20E94E90260E089E20E9429
:10185000E90260E08AE20E94E90260E08BE20E9415
:10186000E90260E08CE20E94E90260E08DE20E9401
:10187000E90260E08AE10E94E90260E08AE10E94F8
:10188000E90260E088E10E94E90260E089E10E94EB
:10189000E90260E089E30E94E90260E086E30E94D9
:1018A000E902EAECF2E0E491E093E80370E060E042
:1018B0008EE994E00E94FB0570E060E08EE794E022
:1018C0000E94FB0570E060E08EE594E00E94FB055D
:1018D00070E060E08EE394E00E94FB0570E060E061
:1018E0008EE194E00E94FB0570E060E08EEF93E0F3
:1018F0000E94FB0505E110E01093A3040093A204ED
:101900006091AB047091AC04072E000C880B990B0E
:101910000E9491129B01AC0160E070E088EA91E4C2
:101920000E94B8149B01AC0160E070E080E89FE386
:101930000E944B146093BA047093BB048093BC0460
:101940009093BD04109383040093820460918B04F0
:1019500070918C04072E000C880B990B0E94911239
:101960009B01AC0160E070E088EA91E40E94B81449
:101970009B01AC0160E070E080E89FE30E944B14A3
:1019800060939A0470939B0480939C0490939D04AD
:1019900088E192E00E9414088EE192E00E9414080F
:1019A00050E040E070E060E08FEF90E00E94E906D8
:1019B00078EC472E512C612C712C0E943F03009132
:1019C0003703109138032091390330913A03601B9B
:1019D000710B820B930B603A7F4081059105E8F112
:1019E00080917B00877F80937B0083E480937C00E1
:1019F00080917A00806480937A0080917A0086FDDD
:101A0000FCCF80917800A0917900BA2FA82F24E60E
:101A100030E00E9430142FEF33E040E050E00E94AD
:101A2000B113309336032093350381E292E00E9494
:101A3000210880913503909136030E9423088EE19E
:101A400092E00E9414080E943F0360933703709352
:101A500038038093390390933A0386E20E949202FE
:101A6000909334038093330387E20E94920288E2CA
:101A70000E949202909332038093310389E20E9484
:101A800092029093300380932F038AE20E94920285
:101A900090932E0380932D038BE20E9492029093E9
:101AA0002C0380932B038CE20E94920290932A03D2
:101AB000809329038DE20E949202909328038093E1
:101AC000270388E10E94920289E10E9492028AE142
:101AD0000E9492028BE10E94920211E084E493E062
:101AE0000E94A903181619060CF04EC084E493E076
:101AF0000E94870389831A82E090C204F090C30495
:101B00008FEFE81AF80AB7018EEB94E00E94DF0825
:101B1000882399F02091BE043091BF048091C204C3
:101B20009091C304BE016F5F7F4F820F931F0E948D
:101B30007817F092C304E092C204109326030E9427
:101B40001A036B017C0162E0862E912CA12CB12C32
:101B50000E941A036C197D098E099F09683E734023
:101B600081059105A8F328EEC20E23E0D21EE11CE8
:101B7000F11C8A9489288A288B2809F4AFCF812CFC
:101B8000912C54018394E4CF80912603882309F497
:101B900058C260E272E08EEB94E00E94CA088111A4
:101BA00046C2CE0101960E94DE0950E040E0BE012F
:101BB0006F5F7F4FCE014F960E943209CE01019692
:101BC0000E94A00867E272E0CE014F960E94CA0808
:101BD000811109C069E272E0CE014F960E94CA08E5
:101BE000882309F457C2CE0101960E94DE0941E024
:101BF00050E0BE016F5F7F4FCE0149960E943209CF
:101C0000CE0101960E94A008CE0101960E94DE0935
:101C100042E050E0BE016F5F7F4FCE0143960E94CD
:101C20003209CE0101960E94A008CE0101960E94C1
:101C3000DE0943E050E0BE016F5F7F4FCE010D969D
:101C40000E943209CE0101960E94A008CE010196A1
:101C50000E94DE0944E050E0BE016F5F7F4FCE017D
:101C600007960E943209CE0101960E94A00866E004
:101C700073E0CE0149960E94A80886E093E00E9496
:101C800007116093020370930303809304039093FE
:101C9000050362EE72E0CE0143960E94A80882EE30
:101CA00092E00E9407114B015C0120E030E048EC1B
:101CB00052EC6091020370910303809104039091B0
:101CC00005030E94F0120E942A159B01AC012C59B9
:101CD0003F4F4F4F5F4FAEEFB1E00E94D013A301D3
:101CE00092010E94B113CA01B9016F5F71098109A4
:101CF00091090E9491126B017C01C0920203D09263
:101D00000303E0920403F092050320E030E048EC86
:101D100052E4C501B4010E94F0120E942A159B01F1
:101D2000AC012C593F4F4F4F5F4FAEEFB1E00E94D7
:101D3000D013A30192010E94B113CA01B9016F5FD0
:101D40007109810991090E9491124B015C018092F5
:101D5000DE029092DF02A092E002B092E102A701BF
:101D600096010E944B140E942A15072E000C880B26
:101D7000990B0E94911223E333E343EB5EE30E944D
:101D8000F0120E942A158EE994E00E944106A501F6
:101D90009401C701B6010E944C140E942A15072E17
:101DA000000C880B990B0E94911223E333E343EB61
:101DB0005EE30E94F01225E530E34AE25FE30E9411
:101DC000F0120E942A158EE794E00E9441066EEB05
:101DD00072E0CE010D960E94A8088EEB92E00E9460
:101DE00007116093BA027093BB028093BC02909378
:101DF000BD026AE972E0CE0107960E94A8088AE94E
:101E000092E00E9407114B015C0120E030E048ECB9
:101E100052EC6091BA027091BB028091BC02909129
:101E2000BD020E94F0120E942A159B01AC012C59A0
:101E30003F4F4F4F5F4FAEEFB1E00E94D013A30171
:101E400092010E94B113CA01B9016F5F7109810942
:101E500091090E9491126B017C01C092BA02D0924A
:101E6000BB02E092BC02F092BD0220E030E048EC00
:101E700052E4C501B4010E94F0120E942A159B0190
:101E8000AC012C593F4F4F4F5F4FAEEFB1E00E9476
:101E9000D013A30192010E94B113CA01B9016F5F6F
:101EA0007109810991090E949112609396027093C1
:101EB00097028093980290939902C701B6010E94FD
:101EC0002A156B01672B09F0BFC062E070E08EE558
:101ED00094E00E94FB0562E070E08EE194E00E94D5
:101EE000FB058CE292E00E942108809133039091DF
:101EF00034030E94230881E392E00E94210880912C
:101F00003303909134030E94230881E392E00E94FE
:101F1000210880913103909132030E94230881E3CC
:101F200092E00E94210880912F03909130030E943B
:101F3000230881E392E00E94210880912D03909173
:101F40002E030E94230881E392E00E9421088091E1
:101F50002B0390912C030E94230881E392E00E94BE
:101F600021088091290390912A030E94230881E38C
:101F700092E00E94210880912703909128030E94FB
:101F8000230881E392E00E942108CE0107960E9477
:101F9000A008CE010D960E94A008CE0143960E9493
:101FA000A008CE0149960E94A00867E272E0CE0127
:101FB0004F960E94CA088823A1F060919602709102
:101FC000970280919802909199020E942A156B01C4
:101FD000672B09F0DDC062E070E08EE394E00E94C0
:101FE000FB0569E272E0CE014F960E94CA08882381
:101FF000D1F0609196027091970280919802909131
:1020000099020E942A156B01672B09F0D6C062E085
:1020100070E08EE594E00E94FB0562E070E08EEFD8
:1020200093E00E94FB05CE014F960E94A00850E06D
:1020300040E060E272E08EEB94E00E9407091092AB
:1020400026030E944E04B9CC70E060E08EE594E077
:102050000E94FB0570E060E08EE194E00E94FB05C9
:10206000B601D7FE02C06F5F7F4F759567958EE50D
:1020700094E00E944106B601D7FE02C06F5F7F4F19
:10208000759567957195619571098EE194E00E944F
:10209000410627CF63E372E0CE014F960E94CA0843
:1020A000882309F482CFCE0101960E94DE0941E027
:1020B00050E0BE016F5F7F4FCE0143960E94320910
:1020C000CE0101960E94A008CE0101960E94DE0971
:1020D00042E050E0BE016F5F7F4FCE010D960E943F
:1020E0003209CE0101960E94A008CE0101960E94FD
:1020F000DE0943E050E0BE016F5F7F4FCE010796DF
:102100000E943209CE0101960E94A00866E772E0A3
:10211000CE0143960E94A80866E572E0CE010D96B6
:102120000E94A80866E372E0CE0107960E94A80804
:1021300086E792E00E9407114B015C0186E592E080
:102140000E9407116B017C0186E392E00E94071157
:102150000E942A156DA37EA38FA398A7C701B6017D
:102160000E942A156B01C501B4010E942A15CB01FA
:102170004DA15EA1B6010E94E906CE0107960E941C
:10218000A008CE010D960E94A008CE0143960BCF69
:1021900070E060E08EE394E00E94FB05B601D7FE9C
:1021A00002C06F5F7F4F7595679571956195710955
:1021B0008EE394E00E94410614CF70E060E08EE56B
:1021C00094E00E94FB0570E060E08EEF93E00E94D7
:1021D000FB05B601D7FE02C06F5F7F4F759567950F
:1021E0008EE594E00E944106B601D7FE02C06F5F03
:1021F0007F4F759567957195619571098EEF93E0A5
:102200000E94410610CF8EEB94E00C94A008662744
:1022100077270C940B118F929F92AF92BF92CF921F
:10222000DF92EF92FF920F931F93CF93DF935C01A6
:102230007B016115710519F0DB018D939C9385017C
:102240000F5F1F4FF501D0818D2F90E00E94691222
:102250006C01892BB9F5DD32B9F50F5F1F4FD50140
:102260001196DC91C1E05801F1E0AF1AB10843E0EA
:1022700050E068E971E0C5010E947212892B69F58E
:10228000680182E0C80ED11C45E050E063E971E0CE
:10229000C6010E947212892B21F4680197E0C90ED1
:1022A000D11CE114F10419F0D701CD92DC9260E069
:1022B00070E080E89FEFC111FFC060E070E080E84F
:1022C0009FE7FAC05801BBCFDB3229F485010E5FCE
:1022D0001F4FF501D181C0E0C6CF43E050E060E977
:1022E00071E0C5010E947212892BE9F0F80110E03B
:1022F00000E020E030E0A9015F01B0ED8B2E8D0EF3
:1023000089E08815C8F19C2E689491F88C2F88700C
:10231000C2FF16C0811102C00F5F1F4F3196D50159
:10232000DC91C92DE9CFE114F10429F00E5F1F4FB4
:10233000F7011183008360E070E080EC9FE7BCC090
:10234000882311F001501109A5E0B0E00E94D013DC
:102350009B01AC01220F331F441F551F280D311D57
:10236000411D511D283999E93907490799E1590754
:10237000A8F2C6609C2ED2CFAEEF8A1206C0C3FD73
:102380003CC09C2E689493F8C9CFDF7DD534A9F565
:1023900080818D3239F4C061DF011296818162E063
:1023A00070E006C0DF018B32C1F3119661E070E08E
:1023B00080535D01A61AB70A8A30F8F4E0E8CE1619
:1023C000ECE0DE065CF4B601660F771F660F771F40
:1023D000C60ED71ECC0CDD1CC80ED11C5D01FFEF54
:1023E000AF1ABF0A8C9180538A30A8F1C4FF03C092
:1023F000D194C194D1080C0D1D1DC1FF09C0E11479
:10240000F10431F081E0A81AB108D701AD92BC9275
:10241000CA01B9010E948F12C370C33009F49058E9
:102420004B015C0120E030E0A9010E948A12882360
:1024300009F440C0C7ECD1E017FF05C01195019524
:102440001109CFEAD1E06E01B8E1CB1AD10880E2E0
:10245000E82EF12C0FC0D501B1CFFE0125913591A9
:10246000459154910E191F09C501B4010E94F01243
:102470004B015C01D501C4010E151F0574F72497AB
:10248000F594E794CC16DD06A9F78A2F880F8B2FD9
:10249000881F8F3F49F020E030E0A901C501B40159
:1024A0000E948A12811106C082E290E09093C504D6
:1024B0008093C404C501B401DF91CF911F910F91A6
:1024C000FF90EF90DF90CF90BF90AF909F908F9054
:1024D000089591110C945D13803219F08950855044
:1024E000C8F70895FB01DC014150504088F08D9100
:1024F00081341CF08B350CF4805E659161341CF0E6
:102500006B350CF4605E861B611171F3990B0895B5
:10251000881BFCCF0E94CC1208F481E00895E89457
:1025200009C097FB3EF490958095709561957F4F1B
:102530008F4F9F4F9923A9F0F92F96E9BB279395C9
:10254000F695879577956795B795F111F8CFFAF4D9
:10255000BB0F11F460FF1BC06F5F7F4F8F4F9F4F0A
:1025600016C0882311F096E911C0772321F09EE868
:10257000872F762F05C0662371F096E8862F70E0CE
:1025800060E02AF09A95660F771F881FDAF7880FA8
:102590009695879597F90895990F0008550FAA0BFE
:1025A000E0E8FEEF16161706E807F907C0F0121666
:1025B0001306E407F50798F0621B730B840B950B69
:1025C00039F40A2661F0232B242B252B21F40895BE
:1025D0000A2609F4A140A6958FEF811D811D08955B
:1025E0000E9403130C9477130E94691338F00E9421
:1025F000701320F0952311F00C9460130C94661363
:1026000011240C94AB130E94881370F3959FC1F3AF
:10261000950F50E0551F629FF001729FBB27F00D90
:10262000B11D639FAA27F00DB11DAA1F649F6627E5
:10263000B00DA11D661F829F2227B00DA11D621F34
:10264000739FB00DA11D621F839FA00D611D221FEE
:10265000749F3327A00D611D231F849F600D211DD2
:10266000822F762F6A2F11249F5750409AF0F1F055
:1026700088234AF0EE0FFF1FBB1F661F771F881FBE
:1026800091505040A9F79E3F510580F00C94601383
:102690000C94AB135F3FE4F3983ED4F386957795A3
:1026A0006795B795F795E7959F5FC1F7FE2B880F64
:1026B000911D9695879597F90895992788270895EC
:1026C00097F99F6780E870E060E008959FEF80ECE5
:1026D000089500240A941616170618060906089588
:1026E00000240A9412161306140605060895092EEE
:1026F0000394000C11F4882352F0BB0F40F4BF2B5D
:1027000011F460FF04C06F5F7F4F8F4F9F4F08959C
:1027100057FD9058440F551F59F05F3F71F0479592
:10272000880F97FB991F61F09F3F79F08795089577
:10273000121613061406551FF2CF4695F1DF08C096
:10274000161617061806991FF1CF869571056105B3
:1027500008940895E894BB2766277727CB0197F95B
:102760000895052E97FB1EF400940E94C81357FD90
:1027700007D00E94E31307FC03D04EF40C94C81357
:1027800050954095309521953F4F4F4F5F4F08959D
:1027900090958095709561957F4F8F4F9F4F0895CD
:1027A0000E940514A59F900DB49F900DA49F800DCD
:1027B000911D11240895B7FF0C94D0130E94D013DB
:1027C000821B930B0895A1E21A2EAA1BBB1BFD01CD
:1027D0000DC0AA1FBB1FEE1FFF1FA217B307E40700
:1027E000F50720F0A21BB30BE40BF50B661F771F58
:1027F000881F991F1A9469F7609570958095909538
:102800009B01AC01BD01CF010895A29FB001B39F10
:10281000C001A39F700D811D1124911DB29F700DE9
:10282000811D1124911D089597FB072E16F4009425
:1028300007D077FD09D00E94371407FC05D03EF47D
:10284000909581959F4F0895709561957F4F08955C
:10285000EE0FFF1F881F8BBF0790F691E02D199494
:102860000E940514B7FF0895821B930B0895AA1BBD
:10287000BB1B51E107C0AA1FBB1FA617B70710F06B
:10288000A61BB70B881F991F5A95A9F7809590959D
:10289000BC01CD0108955058BB27AA270E9463149C
:1028A0000C9477130E94691338F00E94701320F083
:1028B00039F49F3F19F426F40C9466130EF4E09556
:1028C000E7FB0C946013E92F0E94881358F3BA17A2
:1028D000620773078407950720F079F4A6F50C9436
:1028E000AA130EF4E0950B2EBA2FA02D0B01B901FF
:1028F00090010C01CA01A0011124FF27591B99F076
:10290000593F50F4503E68F11A16F040A22F232F81
:10291000342F4427585FF3CF469537952795A795D1
:10292000F0405395C9F77EF41F16BA0B620B730B78
:10293000840BBAF09150A1F0FF0FBB1F661F771FE9
:10294000881FC2F70EC0BA0F621F731F841F48F49E
:10295000879577956795B795F7959E3F08F0B0CF27
:102960009395880F08F09927EE0F9795879508950E
:102970000E94CC140C9477130E94701358F00E949C
:10298000691340F029F45F3F29F00C946013511152
:102990000C94AB130C9466130E94881368F399236C
:1029A000B1F3552391F3951B550BBB27AA2762174B
:1029B0007307840738F09F5F5F4F220F331F441F58
:1029C000AA1FA9F335D00E2E3AF0E0E832D091508C
:1029D0005040E695001CCAF72BD0FE2F29D0660F79
:1029E000771F881FBB1F261737074807AB07B0E8BC
:1029F00009F0BB0B802DBF01FF2793585F4F3AF0C2
:102A00009E3F510578F00C9460130C94AB135F3F1C
:102A1000E4F3983ED4F3869577956795B795F79547
:102A20009F5FC9F7880F911D9695879597F908952F
:102A3000E1E0660F771F881FBB1F621773078407CB
:102A4000BA0720F0621B730B840BBA0BEE1F88F7DA
:102A5000E09508950E9431156894B1110C94AB1360
:102A600008950E94901388F09F5798F0B92F9927E6
:102A7000B751B0F0E1F0660F771F881F991F1AF069
:102A8000BA95C9F714C0B13091F00E94AA13B1E011
:102A900008950C94AA13672F782F8827B85F39F010
:102AA000B93FCCF3869577956795B395D9F73EF402
:102AB00090958095709561957F4F8F4F9F4F0895AA
:102AC0000F931F93CF93DF938230910510F482E030
:102AD00090E0E091C804F091C90430E020E0B0E05B
:102AE000A0E0309799F42115310509F44AC0281B5C
:102AF000390B24303105D8F58A819B816115710528
:102B000089F1FB0193838283FE0111C040815181D1
:102B10000281138148175907E0F04817590799F4C3
:102B2000109761F012960C93129713961C9332969D
:102B3000CF01DF91CF911F910F9108950093C804A9
:102B40001093C904F4CF2115310551F042175307F2
:102B500038F0A901DB019A01BD01DF01F801C1CF05
:102B6000EF01F9CF9093C9048093C804CDCFFE0143
:102B7000E20FF31F81939193225031093983288307
:102B8000D7CF2091C6043091C704232B41F4209164
:102B90000202309103023093C7042093C6042091AF
:102BA0000002309101022115310541F42DB73EB7E5
:102BB0004091040250910502241B350BE091C6049C
:102BC000F091C704E217F307A0F42E1B3F0B281760
:102BD000390778F0AC014E5F5F4F2417350748F096
:102BE0004E0F5F1F5093C7044093C6048193919387
:102BF0009FCFF0E0E0E09CCFCF93DF930097E9F028
:102C0000FC01329713821282A091C804B091C904CA
:102C1000ED0130E020E01097A1F420813181820F96
:102C2000931F2091C6043091C7042817390709F073
:102C300061C0F093C704E093C604DF91CF9108957B
:102C4000EA01CE17DF07E8F54A815B819E01411555
:102C50005105B1F7E901FB83EA8349915991C40F0A
:102C6000D51FEC17FD0761F4808191810296840FD6
:102C7000951FE90199838883828193819B838A834D
:102C8000F0E0E0E012968D919C9113970097B9F5D2
:102C90002D913C911197CD010296820F931F2091A7
:102CA000C6043091C7042817390739F6309751F513
:102CB0001092C9041092C804B093C704A093C6042C
:102CC000BCCFD383C28340815181840F951FC81725
:102CD000D90761F44E5F5F4F88819981480F591F72
:102CE000518340838A819B8193838283211531059F
:102CF00009F0B0CFF093C904E093C8049ECFFD0162
:102D0000DC01C0CF13821282D7CF4F925F926F92B5
:102D10007F928F929F92AF92BF92CF92DF92EF926B
:102D2000FF920F931F93CF93DF938C01009799F439
:102D3000CB01DF91CF911F910F91FF90EF90DF902A
:102D4000CF90BF90AF909F908F907F906F905F904B
:102D50004F900C946015FC01E60FF71F9C01225068
:102D60003109E217F30708F4AEC0D901CD91DC9127
:102D70001197C617D70720F1C530D10578F0CE01DD
:102D800004978617970750F0C61BD70B2297C1935D
:102D9000D1936D937C93CF010E94FC15C801DF9104
:102DA000CF911F910F91FF90EF90DF90CF90BF9048
:102DB000AF909F908F907F906F905F904F9008950D
:102DC0005B01AC1ABD0A4C018C0E9D1EA091C8047B
:102DD000B091C904512C412CF12CE12C109731F504
:102DE0008091C6049091C7048815990509F05CC0CC
:102DF0004616570608F058C08091000290910102D3
:102E0000009741F48DB79EB740910402509105029E
:102E1000841B950BE817F90708F055C0F093C70419
:102E2000E093C604F90171836083B8CF8D919C91C2
:102E3000119712966C90129713967C901397A81581
:102E4000B90559F56C0142E0C40ED11CCA14DB046B
:102E500020F1AC014A195B09DA011296159780F04E
:102E60006282738251834083D9016D937C93E11414
:102E7000F10471F0D7011396FC93EE9312978ECF65
:102E800022968C0F9D1FF90191838083F301EFCF70
:102E9000F093C904E093C80481CF4816590608F49A
:102EA0002C017D01D3019ACFCB010E9460157C01DA
:102EB000009749F0AE01B8010E946617C8010E9450
:102EC000FC1587016BCF10E000E068CFFB01DC014F
:102ED00002C001900D9241505040D8F70895FB0177
:102EE000DC018D91019080190110D9F3990B08959F
:102EF000FB01DC0101900D920020E1F70895FB0138
:102F0000DC014150504048F001900D920020C9F77B
:102F100001C01D9241505040E0F7089511E0C7EF05
:102F2000D1E000E006C0802FFE010E942814219607
:102F3000011DC83FD10780E00807A9F7F894FFCF2B
:102F40000000CA04800000000000E1034B03780386
:102F50002E04A90387039B035265616479000D0A5F
:102F6000004261743A20006D006D6800484F4C4C7F
:062F70003A20006C000095
:00000001FF
