:100000000C94F8010C9429020C9429020C942902F6
:100010000C9429020C9429020C9429020C942902B4
:100020000C9429020C9429020C9429020C942902A4
:100030000C9429020C9429020C9429020C94290294
:100040000C9429020C9429020C9429020C94290284
:100050000C9429020C9429020C9429020C94D409C2
:100060000C9429020C94480A0C941E0A0C94290240
:100070000C9429020C9429020C9429020C94290254
:100080000C9429020C9429020C9429020C94290244
:100090000C9429020C9429020C9429020C94290234
:1000A0000C9429020C9429020C9429020C94290224
:1000B0000C9429020C9429020C9429020C94290214
:1000C0000C9429020C9429020C9429020C94290204
:1000D0000C9429020C9429020C9429020C942902F4
:1000E0000C9429020C942D050C943F030C943705B5
:1000F0000C94CC0F0C94CD040C948F030C947B03C4
:100100000C947C020C944F020C9480020C946802B4
:100110000C9449020C94F0040C948E020C944B0540
:100120000C94E6040C945F050C945B020C946E0234
:100130000C948A020C94C3040C94D2040C94840290
:100140000C9422040C94D5030C947E0A0C94720235
:100150000C9455050C946C030C949D030C94410570
:100160000C9476020C94F8040C9400050C9414057D
:100170000C941E050C9464020C945E020C940A0507
:100180000C9453020C9457020C94DC040C948902D6
:100190004E414E494E495459494E46CDCCCC3D0A6C
:1001A000D7233C17B7D13877CC2B329595E6241F4F
:1001B000B14F0A000020410000C84200401C462008
:1001C000BCBE4CCA1B0E5AAEC59D74000000000098
:1001D000000000010101010101010102020202020D
:1001E00002020303030303040404050505050506D1
:1001F0000606060707070808080808090A0A0A0A7F
:100200000B0B0C0C0C0C0D0D0D0E0E0F0F0F101117
:10021000111111121213141414141516161717179E
:100220001819191A1A1B1B1C1C1D1E1E1F1F20210A
:10023000212223232425252626272829292A2B2C59
:100240002D2D2E2F2F303132333435363637383886
:10025000393A3B3C3D3E3F40414243444545464799
:10026000494A4B4C4D4E4F50515254555657595A7E
:100270005B5D5E5F60616264656667696A6C6D6E36
:100280006F7173757677797A7B7C7F8082838586C0
:1002900088898B8C8F9192939497999A9C9E9FA218
:1002A000A3A5A7A9ABADAEB0B3B4B6B9BABCBEC036
:1002B000C2C4C7C9CACDCFD1D3D6D8DADCDFE1E218
:1002C000E6E7EBECF0F1F5F6FAFBFF000020002387
:1002D00000260029002C002F00320000010000033E
:1002E000010601090100000A0B02090C0D0E0807A6
:1002F00003040100000000000000000000000000F6
:1003000000000000000000000000000000000000ED
:1003100000121110000000000000000000000000AA
:100320000000000000000000000000000021002488
:100330000027002A002D00300033000101000004D6
:100340000107010A0100002200250028002B002ED1
:10035000003100340002010000050108010B010515
:10036000050505070508080808020202020A0A082E
:100370000804040404010101010101010103030354
:100380000303030303040707070C0C0C0C0C0C0CF1
:100390000C0202020206060606060606060B0B0BF8
:1003A0000B0B0B0B0B010210202008081020401033
:1003B0002040800201020108040201010204081029
:1003C0002040808040201008040201800402018047
:1003D0004020100804020108040201010204081070
:1003E0002040800102040810204080007E0ACC0FCB
:1003F00011241FBECFEFD1E2DEBFCDBF00E00CBFA6
:1004000012E0A0E0B2E0E4ECFCE200E00BBF02C0CE
:1004100007900D92AC32B107D9F724E0ACE2B2E01C
:1004200001C01D92AA3BB207E1F711E0C7EFD1E08E
:1004300000E006C021970109802FFE010E94F11201
:10044000C63FD10780E00807A9F70E94470B0C942C
:1004500050160C9400008150823108F05AC0E82FE9
:10046000F0E08827E95CFD4F8F4F0C94F1125702A2
:100470005B0249024F02530289025E026402680273
:100480006E02720276027C028002890284028A0273
:100490008E02809180008F778093800008958091F4
:1004A00080008F7DF9CF80918000877FF5CF84B564
:1004B0008F7784BD089584B58F7DFBCF8091B00088
:1004C0008F778093B00008958091B0008F7DF9CF31
:1004D000809190008F778093900008958091900094
:1004E0008F7DF9CF80919000877FF5CF8091A0001C
:1004F0008F778093A00008958091A0008F7DF9CF21
:100500008091A000877FF5CF809120018F77809325
:1005100020010895809120018F7DF9CF80912001E5
:10052000877FF5CFCF93DF93282F30E0F901EB5190
:10053000FD4F8491F901EB55FC4FD491F901E15A3B
:10054000FC4FC491CC23A1F081110E942B02EC2F0F
:10055000F0E0EE0FFF1FE553FD4FA591B491EC9134
:10056000ED2381E090E009F480E0DF91CF910895E0
:1005700080E090E0FACF1F93CF93DF93282F30E0F5
:10058000F901EB51FD4F8491F901EB55FC4FD491EA
:10059000F901E15AFC4FC491CC23A9F0162F811127
:1005A0000E942B02EC2FF0E0EE0FFF1FEB5BFC4FE5
:1005B000A591B4918FB7F894EC91111108C0D09522
:1005C000DE23DC938FBFDF91CF911F910895DE2B47
:1005D000F8CFCF93DF9390E0FC01EB55FC4F2491D3
:1005E000815A9C4FFC0184918823D1F090E0880FC0
:1005F000991FFC01E55DFC4FA591B491FC01EB5BFB
:10060000FC4FC591D49161110EC09FB7F8948C91A5
:10061000E22FE0958E238C932881E223E8839FBF0D
:10062000DF91CF9108958FB7F894EC91E22BEC9382
:100630008FBFF6CF3FB7F89480913003909131038C
:10064000A0913203B091330326B5A89B05C02F3F7C
:1006500019F00196A11DB11D3FBFBA2FA92F982FE8
:100660008827BC01CD01620F711D811D911D42E0E3
:10067000660F771F881F991F4A95D1F70895AF928B
:10068000BF92CF92DF92EF92FF920F931F93CF937F
:10069000DF936C017B018B01040F151FEB015E01E1
:1006A000AE18BF08C017D10759F06991D601ED9176
:1006B000FC910190F081E02DC6011995892B79F705
:1006C000C501DF91CF911F910F91FF90EF90DF90C7
:1006D000CF90BF90AF900895FC01538D448D252F8E
:1006E00030E0842F90E0821B930B541710F0CF96CC
:1006F000089501970895FC01918D828D981761F0FE
:10070000A28DAE0FBF2FB11D5D968C91928D9F5F14
:100710009F73928F90E008958FEF9FEF0895FC01F3
:10072000918D828D981731F0828DE80FF11D858DA6
:1007300090E008958FEF9FEF0895FC01918D228D39
:10074000892F90E0805C9F4F821B91098F739927BE
:10075000089584E393E00E949D0321E0892B09F42E
:1007600020E0822F0895FC01A48DA80FB92FB11DA0
:10077000A35ABF4F2C91848D90E001968F739927D7
:10078000848FA689B7892C93A089B1898C918370B5
:1007900080648C93938D848D981306C00288F389AE
:1007A000E02D80818F7D80830895EF92FF920F93DB
:1007B0001F93CF93DF93EC0181E0888F9B8D8C8D0D
:1007C00098131AC0E889F989808185FF15C09FB701
:1007D000F894EE89FF896083E889F98980818370C4
:1007E000806480839FBF81E090E0DF91CF911F9173
:1007F0000F91FF90EF900895F62E0B8D10E00F5F94
:100800001F4F0F731127E02E8C8D8E110CC00FB669
:1008100007FCFACFE889F989808185FFF5CFCE0101
:100820000E94B303F1CFEB8DEC0FFD2FF11DE35AC6
:10083000FF4FF0829FB7F8940B8FEA89FB89808184
:100840008062CFCFCF93DF93EC01888D8823B9F0FE
:10085000AA89BB89E889F9898C9185FD03C08081CB
:1008600086FD0DC00FB607FCF7CF8C9185FFF2CF48
:10087000808185FFEDCFCE010E94B303E9CFDF91E8
:10088000CF91089580E090E0892B29F00E94A90380
:1008900081110E94000080E090E0892B49F080E007
:1008A00090E0892B29F00E94000081110E94000035
:1008B00080E090E0892B49F080E090E0892B29F0DE
:1008C0000E94000081110E94000080E090E0892BCE
:1008D00049F080E090E0892B29F00E94000081110E
:1008E0000C9400000895FF920F931F93CF93DF9312
:1008F0008C01F42EE901FC0180858F3F11F00E94EC
:10090000BB02F80181858F3F19F06F2D0E94BB0259
:10091000F80112851F3F09F43AC061E0812F0E945F
:10092000E902209749F460E0812FDF91CF911F9178
:100930000F91FF900C94BB02CF3FD10511F461E001
:10094000F3CFE12FF0E0EB51FD4FE491E150E231C4
:1009500008F0B5C0F0E08827EF54FB4F8F4F0C94A0
:10096000F112C304CD04D204DC04E6045F05F004F4
:10097000F80400050A0514051E052D0537055F0559
:1009800041054B05550584B5806884BDC7BDDF9121
:10099000CF911F910F91FF90089584B5806284BD1F
:1009A000C8BDF5CF80918000806880938000D0938F
:1009B0008900C0938800EBCF809180008062809393
:1009C0008000D0938B00C0938A00E1CF809180009B
:1009D000886080938000D0938D00C0938C00D7CF27
:1009E0008091B00080688093B000C093B300CFCFF7
:1009F0008091B00080628093B000C093B400C7CFF4
:100A000080919000806880939000D0939900C0936B
:100A10009800BDCF80919000806280939000D09329
:100A20009B00C0939A00B3CF809190008860809320
:100A30009000D0939D00C0939C00A9CF8091A0000E
:100A400080688093A0008091A0008F7B8093A0009D
:100A5000D093A900C093A8009ACF8091A000806293
:100A60008093A000D093AB00C093AA0090CF809158
:100A7000A00088608093A000D093AD00C093AC002C
:100A800086CF80912001806880932001D093290136
:100A9000C09328017CCF8091200180628093200147
:100AA000D0932B01C0932A0172CF809120018860DE
:100AB00080932001D0932D01C0932C0168CFC038C2
:100AC000D1050CF03CCF2FCFEF92FF920F931F93E5
:100AD000CF93DF93EC018B017A018D899E89892B5D
:100AE000F1F089899A8986179707C9F07A8B698B03
:100AF00061E08C85811101C060E030E020E0462F8C
:100B0000CE010E9473048D899E898230910538F050
:100B1000880F991F880F991F05970197F1F78B850B
:100B2000882331F00115110531F10130110591F0E3
:100B30000130110501F170F00230110509F445C0D2
:100B40000330110589F1DF91CF911F910F91FF9033
:100B5000EF9008958C8541E0811140E061E08111C2
:100B600001C060E09701CE010E94730481E090E033
:100B70009F838E83E8CF8B899C89019731F48D8583
:100B80009E859C012E193F0979018C8541E08111D8
:100B900001C040E061E0811160E09701CE010E9458
:100BA00073048FEF9FEFE4CF8C8530E020E081115C
:100BB00002C02FEF30E061E0811160E0462FCE01EE
:100BC0000E9473041F821E82BECF2C8561E021111A
:100BD00001C060E04FEF240390011124EFCFFC012E
:100BE000708B6787408151810C9464050F93CF937C
:100BF000DF93EC01862F198218821B821A821D82D4
:100C00001C821F821E821B866FEF70E07E876D87BD
:100C1000188A1F861A8A198A1E8A1D8A94E19F8B58
:100C2000188E198E1A8E1B8E62E070E07C8B6B8B97
:100C3000888749872A8791E009270C8761E00E940D
:100C4000E90289858F3F19F061E00E94E9028A85F7
:100C50008F3F19F061E00E94E90262E070E0CE018E
:100C6000DF91CF910F910C94EF058F929F92AF92ED
:100C7000BF92EF92FF920F931F93CF93DF93EC01FC
:100C80000F851889023011050CF08CC08D859E856A
:100C900022273327281B390B621773072CF09C017E
:100CA000681779070CF49B01398328838F3F9105DE
:100CB00079F074F0C90137FF04C088279927821B97
:100CC000930B8F3F910521F42F5F3F4F398328838A
:100CD0006115710589F450E040E062E070E0CE01FA
:100CE000DF91CF911F910F91FF90EF90BF90AF9048
:100CF0009F908F900C9464059B01EC80FD8068812F
:100D00007981121613062CF5E114F104F1F0072E87
:100D1000000C880B990B0E945A112C8D3D8D4E8D25
:100D20005F8D0E94B9114B015C01B701FF0C880B6C
:100D3000990B0E945A119B01AC01C501B4010E949C
:100D40000E130E94EC137983688348815981B8019E
:100D5000C6CFE114F104F1F0072E000C880B990BBB
:100D60000E945A112C8D3D8D4E8D5F8D0E94B911C0
:100D70004B015C01B701FF0C880B990B0E945A11C3
:100D80009B01AC01C501B4010E940D130E94EC133C
:100D9000798368834881598151954195510961E072
:100DA00070E09DCFDF91CF911F910F91FF90EF9059
:100DB000BF90AF909F908F9008953F924F925F9217
:100DC0006F927F928F929F92AF92BF92CF92DF925B
:100DD000EF92FF920F931F93CF93DF9300D01F9258
:100DE0001F92CDB7DEB7FA01FF27E553FE4F84907F
:100DF0007727FB01E553FE4F0491FC01FF27E553E4
:100E0000FE4FE490E092D5030093D6038092D7037F
:100E10008091E903E091E103F091E2039081982B46
:100E20009093EB039081809589238093EC0330901D
:100E3000D8033092D903C090DF03D090E0032E2D69
:100E400030E03D832C8310E0912CC114D10409F4CF
:100E500087C0A32CB12CA5014F5F5F4F249FC00119
:100E6000259F900D349F900D1124892F9927049F61
:100E70002001059F500C149F500C1124452C552423
:100E8000712C612C480E591E611C711C849EC0017E
:100E9000859E900D949E900D1124892F9927480EC0
:100EA000591E611C711C552777FC5A95472D362D0C
:100EB000252DA091D103B091D2030E94A41223E06A
:100EC00030E040E050E00E947A1229013A0180911E
:100ED000D3039091D4034114510461047104F1F1DE
:100EE00068EE73E00E94DD12CB01072E000CAA0B06
:100EF000BB0B840D951DA61DB71D96010D2C000C76
:100F0000440B550B82179307A407B5073CF1A601C4
:100F1000461B570BBA01072E000C880B990B0E9439
:100F20005A116B017C01B501BB0C880B990B0E9417
:100F30005A119B01AC01C701B6010E94B9115B01B6
:100F40006C01C301B2010E945A119B01AC01C601A0
:100F5000B5010E947A130E94F313362E3092D90302
:100F60008091D90390E001964C815D81489F90016A
:100F7000499F300D589F300D11243A83089F9001EE
:100F8000099F300D189F300D11243983889E9001E0
:100F9000899E300D989E300D11243B838FB780932E
:100FA000ED03F8945091EB032091EC03A091E10341
:100FB000B091E203FE013196CE010496619138E0D2
:100FC0005C9367FF2C93660F43E04A95F1F70000AE
:100FD0002C933A95A9F78E179F0781F78091ED031F
:100FE0008FBF0F900F900F900F900F90DF91CF91C8
:100FF0001F910F91FF90EF90DF90CF90BF90AF9037
:101000009F908F907F906F905F904F903F9008954A
:10101000FC0101900020E9F73197AF01481B590B03
:10102000BC0184E393E00C943F038F929F92AF92B4
:10103000BF92CF92DF92EF92FF920F931F93CF93C5
:10104000DF93CDB7DEB7A1970FB6F894DEBF0FBE22
:10105000CDBF6C01990FEE08FF08F7FE41C06DE2AD
:1010600084E393E00E94D5038C0122273327A90152
:101070002C193D094E095F0919A2CE0181967C0108
:101080009AE0892E912CA12CB12CCA01B901A5019D
:1010900094010E94AC12605DF70162937F012115FB
:1010A00031054105510589F790E080E0309719F04E
:1010B000CF010E940808800F911FA1960FB6F894E7
:1010C000DEBF0FBECDBFDF91CF911F910F91FF907B
:1010D000EF90DF90CF90BF90AF909F908F9008954A
:1010E000A701960119A28E010F5D1F4F8AE0C82E3D
:1010F000D12CE12CF12CCA01B901A70196010E9463
:10110000AC12605DF80162938F0121153105410534
:10111000510589F790E080E0309779F2CF010E9485
:101120000808CBCFFC0180819181009711F00C94CD
:10113000BE1408950F931F93CF93DF93FC01048196
:1011400015810115110539F4FB011082DF91CF9152
:101150001F910F9108950F31110510F00FE110E06C
:10116000EB01FC0160817181A801CE010E94411652
:10117000C00FD11F1882EACF0F931F93CF93DF9335
:10118000EC0188819981009759F02A813B812617CB
:10119000370730F081E0DF91CF911F910F910895D3
:1011A0008B016F5F7F4F0E944715009759F099831D
:1011B00088831B830A832C813D81232B59F7FC01F3
:1011C0001082E8CF80E0E7CFEF92FF920F931F935A
:1011D000CF93DF93EC017B018A01BA010E94BC0826
:1011E00028813981811114C02115310519F0C901F7
:1011F0000E94BE14198218821D821C821B821A82D0
:10120000CE01DF91CF911F910F91FF90EF90089544
:101210001D830C83B701C9010E943A16F1CF8F924A
:101220009F92AF92BF92CF92DF92EF92FF920F9375
:101230001F93CF93DF93EC018B01FB01C480D5801A
:10124000D60111972FEF3FEFB12CA12C90E080E059
:1012500070E060E0A817B9072CF14617570734F182
:10126000FC0131967F018C159D0560F4F8018080AA
:1012700091808114910431F0F401E80FF91FE081AD
:10128000EB3319F0A817B90759F46F5F7F4F590175
:10129000FFEFAF1ABF0A9701A817B90709F09C0121
:1012A000C701D8CF461757070CF057C069012A1558
:1012B0003B0510F065015901198218821B821A82C0
:1012C0001D821C8250E040E060E272E0CE010E948C
:1012D000E408F801E480F580CE14DF0418F5AE14BC
:1012E000BF0408F47501F80160817181FB01EE0D06
:1012F000FF1DB08010826C0D7D1D6115710501F11F
:10130000FB0101900020E9F73197AF01461B570B15
:10131000CE010E94E408F80180819181E80EF91E57
:10132000F701B082CE01DF91CF911F910F91FF9015
:10133000EF90DF90CF90BF90AF909F908F900895E7
:1013400088819981009711F00E94BE141982188239
:101350001D821C821B821A82DECF198218821B8298
:101360001A821D821C8250E040E060E272E0CE01F1
:101370000E94E408D7CFFC011182108213821282EE
:1013800015821482F4E08E3A9F0769F06091AE04F2
:101390007091AF046115710531F04091B204509124
:1013A000B3040C94E40808951F920F920FB60F92A5
:1013B00011242F933F938F939F93AF93BF9380916B
:1013C0002C0390912D03A0912E03B0912F03309107
:1013D0002B0323E0230F2D3758F50196A11DB11DD6
:1013E00020932B0380932C0390932D03A0932E0323
:1013F000B0932F038091300390913103A091320379
:10140000B09133030196A11DB11D809330039093D9
:101410003103A0933203B0933303BF91AF919F91F7
:101420008F913F912F910F900FBE0F901F901895A5
:1014300026E8230F0296A11DB11DD2CF1F920F9255
:101440000FB60F9211240BB60F922F933F934F9329
:101450005F936F937F938F939F93AF93BF93EF931C
:10146000FF9384E393E00E94B303FF91EF91BF9158
:10147000AF919F918F917F916F915F914F913F912C
:101480002F910F900BBE0F900FBE0F901F901895CD
:101490001F920F920FB60F9211240BB60F922F933B
:1014A0008F939F93EF93FF93E0914403F091450353
:1014B0008081E0914A03F0914B0382FD1DC0908131
:1014C00080914D038F5F8F7320914E03821741F0FF
:1014D000E0914D03F0E0EC5CFC4F958F80934D0361
:1014E000FF91EF919F918F912F910F900BBE0F90D5
:1014F0000FBE0F901F9018958081F2CF0F93CF935E
:10150000DF93E4E3F3E01382128288EE93E0A0E03D
:10151000B0E084839583A683B7838AE092E09183C9
:10152000808385EC90E09587848784EC90E09787B2
:10153000868780EC90E0918B808B81EC90E0938BA0
:10154000828B82EC90E0958B848B86EC90E0978B7D
:10155000868B118E128E138E148EEEEAF4E01182B9
:101560001082138212821582148250E040E060E201
:1015700072E0CF010E94E40800E024E043E062E072
:101580008EE894E00E94F60501E027E046E065E081
:101590008EE694E00E94F60528E04FE16EE18EE4CD
:1015A00094E00E94F60529E041E260E28EE294E0D8
:1015B0000E94F6052AE043E262E28EE094E00E9497
:1015C000F6052BE045E264E28EEE93E00E94F6051C
:1015D000A1EDB3E02EE230E011963C932E9380ED26
:1015E00097E013969C938E93129782E317968C93B1
:1015F000179718968C93189719961C9219971A9604
:101600001C921A971B961C921B971C961C921C9757
:101610001D961C921D971F961C921E921E978FB7A7
:101620005C968C935C97E1EBF3E0449158964C9375
:1016300058978BE693E0FC015491E52FF0E0EE0F14
:10164000FF1FEB5BFC4F6591749151967C936E93F9
:101650005097FC018491E82FF0E0EE0FFF1FE55D4D
:10166000FC4FC591D4915396DC93CE935297E88169
:101670004E2B488311963C932E938CE697E013965D
:101680009C938E931297DF91CF910F910895CF93F2
:10169000DF93CDB7DEB7A8970FB6F894DEBF0FBEC5
:1016A000CDBF789484B5826084BD84B5816084BDEB
:1016B00085B5826085BD85B5816085BD80916E00F0
:1016C000816080936E001092810080918100826021
:1016D000809381008091810081608093810080915E
:1016E00080008160809380008091B100846080934D
:1016F000B1008091B00081608093B0008091910032
:10170000826080939100809191008160809391002C
:10171000809190008160809390008091A100826010
:101720008093A1008091A10081608093A1008091AD
:10173000A00081608093A00080912101826080934D
:1017400021018091210181608093210180912001FC
:1017500081608093200180917A00846080937A0078
:1017600080917A00826080937A0080917A00816013
:1017700080937A0080917A00806880937A0010923A
:10178000C100E0914403F091450382E08083E09141
:101790004003F09141031082E0914203F091430332
:1017A0008FEC808310924C03E0914803F091490341
:1017B00086E08083E0914603F09147038081806159
:1017C0008083E0914603F0914703808188608083A5
:1017D000E0914603F0914703808180688083E09127
:1017E0004603F091470380818F7D808360E086E22D
:1017F0000E94E90260E087E20E94E90260E088E27C
:101800000E94E90260E089E20E94E90260E08AE267
:101810000E94E90260E08BE20E94E90260E08CE253
:101820000E94E90260E08DE20E94E902EAECF2E047
:10183000E491E093D80370E060E08EE894E00E94C9
:10184000EF0570E060E08EE694E00E94EF0570E046
:1018500060E08EE494E00E94EF0570E060E08EE2CC
:1018600094E00E94EF0570E060E08EE094E00E945A
:10187000EF0570E060E08EEE93E00E94EF050FE070
:1018800010E0109393040093920460919B04709174
:101890009C04072E000C880B990B0E945A119B0187
:1018A000AC0160E070E080E791E40E947A139B0154
:1018B000AC0160E070E080E89FE30E940D1360934C
:1018C000AA047093AB048093AC049093AD0410937E
:1018D00073040093720460917B0470917C04072E62
:1018E000000C880B990B0E945A119B01AC0160E01F
:1018F00070E080E791E40E947A139B01AC0160E004
:1019000070E080E89FE30E940D1360938A04709357
:101910008B0480938C0490938D0488E192E00E9464
:1019200008088EE192E00E94080850E040E070E074
:1019300060E08FEF90E00E94DD0611E058EC452E4C
:10194000512C612C712C86E20E94920290932A0302
:101950008093290387E20E94920288E20E94920209
:10196000909328038093270389E20E949202909328
:101970002603809325038AE20E9492029093240317
:10198000809323038BE20E94920290932203809320
:1019900021038CE20E9492029093200380931F0304
:1019A0008DE20E94920290931E0380931D0384E3B4
:1019B00093E00E949D03181619060CF04EC084E3B4
:1019C00093E00E947B0389831A82E090B204F09036
:1019D000B3042FEFE21AF20AB7018EEA94E00E94F4
:1019E000BC08882399F02091AE043091AF04809117
:1019F000B2049091B304BE016F5F7F4F820F931FBB
:101A00000E943A16F092B304E092B20410931C03C1
:101A10000E941A036B017C0142E0842E912CA12CC0
:101A2000B12C0E941A036C197D098E099F09683E2A
:101A3000734081059105A8F388EEC80E83E0D81E97
:101A4000E11CF11C8A9489288A288B2809F4AFCFDD
:101A5000812C912C54018394E4CF80911C03882322
:101A600009F41BC28091B2049091B304892B09F44C
:101A70000AC2E091AE04F091AF048081882309F49A
:101A800002C2CE0101960E94BB0950E040E0BE01B7
:101A90006F5F7F4FCE014F960E940F09CE010196D6
:101AA0000E9492088BA19CA1892B09F4E8C1EF8CBC
:101AB000F8A061E272E0C7010E943116892B09F09B
:101AC000EFC1CE0101960E94BB0941E050E0BE018A
:101AD0006F5F7F4FCE0149960E940F09CE0101969C
:101AE0000E949208CE0101960E94BB0942E050E09C
:101AF000BE016F5F7F4FCE0143960E940F09CE015A
:101B000001960E949208CE0101960E94BB0943E013
:101B100050E0BE016F5F7F4FCE010D960E940F090E
:101B2000CE0101960E949208CE0101960E94BB0947
:101B300044E050E0BE016F5F7F4FCE0107960E94E8
:101B40000F09CE0101960E9492086CEF72E0CE015F
:101B500049960E949A088CEF92E00E94D00F609301
:101B6000F8027093F9028093FA029093FB0268EDF9
:101B700072E0CE0143960E949A0888ED92E00E949E
:101B8000D00F4B015C0120E030E048EC52EC60915A
:101B9000F8027091F9028091FA029091FB020E9482
:101BA000B9110E94EC139B01AC012C593F4F4F4FD0
:101BB0005F4FAEEFB1E00E949912A30192010E9423
:101BC0007A12CA01B9016F5F7109810991090E94F6
:101BD0005A116B017C01C092F802D092F902E09296
:101BE000FA02F092FB0220E030E048EC52E4C5013A
:101BF000B4010E94B9110E94EC139B01AC012C5955
:101C00003F4F4F4F5F4FAEEFB1E00E949912A301DB
:101C100092010E947A12CA01B9016F5F71098109AC
:101C200091090E945A114B015C018092D40290925A
:101C3000D502A092D602B092D702A70196010E94C7
:101C40000D130E94EC138EE894E00E943506A50166
:101C50009401C701B6010E940E130E94EC138EE698
:101C600094E00E94350664EB72E0CE010D960E946E
:101C70009A0884EB92E00E94D00F6093B0027093B8
:101C8000B1028093B2029093B30260E972E0CE0198
:101C900007960E949A0880E992E00E94D00F6B019B
:101CA0007C0120E030E048EC52EC6091B002709191
:101CB000B1028091B2029091B3020E94B9110E94C8
:101CC000EC139B01AC012C593F4F4F4F5F4FAEEFD0
:101CD000B1E00E949912A30192010E947A12CA01F6
:101CE000B9016F5F7109810991090E945A114B0175
:101CF0005C018092B0029092B102A092B202B092C6
:101D0000B30220E030E048EC52E4C701B6010E9483
:101D1000B9110E94EC139B01AC012C593F4F4F4F5E
:101D20005F4FAEEFB1E00E949912A30192010E94B1
:101D30007A12CA01B9016F5F7109810991090E9484
:101D40005A116B017C01C0928C02D0928D02E092FC
:101D50008E02F0928F02C501B4010E94EC134B0178
:101D600077FF02C06F5F7F4F759567958EE494E0B3
:101D70000E943506B40197FE02C06F5F7F4F7595D4
:101D800067957195619571098EE094E00E94350622
:101D9000C701B6010E94EC139B0177FF02C02F5FC1
:101DA0003F4FB901759567957195619571098EE2FF
:101DB00094E00E94350683E292E00E940808809138
:101DC000290390912A030E94150888E292E00E945C
:101DD00008088091290390912A030E94150888E23F
:101DE00092E00E94080880912703909128030E94A6
:101DF000150888E292E00E940808809125039091DE
:101E000026030E94150888E292E00E94080880914B
:101E10002303909124030E94150888E292E00E9417
:101E2000080880912103909122030E94150888E2FE
:101E300092E00E94080880911F03909120030E9465
:101E4000150888E292E00E94080880911D03909195
:101E50001E030E94150888E292E00E940808CE0145
:101E600007960E949208CE010D960E949208CE011C
:101E700043960E949208CE0149960E949208CE0194
:101E80004F960E94920850E040E060E272E08EEAD5
:101E900094E00E94E40810921C030E94420453CD77
:101EA0006AE272E0C7010E943116892B41F7CE0128
:101EB00001960E94BB0941E050E0BE016F5F7F4F79
:101EC000CE0143960E940F09CE0101960E9492080E
:101ED000CE0101960E94BB0942E050E0BE016F5F57
:101EE0007F4FCE010D960E940F09CE0101960E94F0
:101EF0009208CE0101960E94BB0943E050E0BE016A
:101F00006F5F7F4FCE0107960E940F09CE010196A9
:101F10000E9492086CE672E0CE0143960E949A08F5
:101F20006CE472E0CE010D960E949A086CE272E0B9
:101F3000CE0107960E949A088CE692E00E94D00F8C
:101F40004B015C018CE492E00E94D00F6B017C019C
:101F50008CE292E00E94D00F0E94EC136DA37EA34E
:101F60008FA398A7C701B6010E94EC136B01C501AE
:101F7000B4010E94EC13CB014DA15EA1B6010E94F9
:101F8000DD06CE0107960E949208CE010D960E94B2
:101F90009208CE01439671CF8EEA94E00C94920899
:101FA000662777270C94D40F8F929F92AF92BF929F
:101FB000CF92DF92EF92FF920F931F93CF93DF9315
:101FC0005C017B016115710519F0DB018D939C9318
:101FD00085010F5F1F4FF501D0818D2F90E00E948A
:101FE00032116C01892BB9F5DD32B9F50F5F1F4F46
:101FF000D5011196DC91C1E05801F1E0AF1AB108AA
:1020000043E050E068E971E0C5010E943B11892B73
:1020100069F5680182E0C80ED11C45E050E063E933
:1020200071E0C6010E943B11892B21F4680197E001
:10203000C90ED11CE114F10419F0D701CD92DC9244
:1020400060E070E080E89FEFC111FFC060E070E0E9
:1020500080E89FE7FAC05801BBCFDB3229F4850145
:102060000E5F1F4FF501D181C0E0C6CF43E050E0C5
:1020700060E971E0C5010E943B11892BE9F0F8018C
:1020800010E000E020E030E0A9015F01B0ED8B2E10
:102090008D0E89E08815C8F19C2E689491F88C2FDC
:1020A0008870C2FF16C0811102C00F5F1F4F3196AA
:1020B000D501DC91C92DE9CFE114F10429F00E5FBF
:1020C0001F4FF7011183008360E070E080EC9FE711
:1020D000BCC0882311F001501109A5E0B0E00E94B6
:1020E00099129B01AC01220F331F441F551F280D6D
:1020F000311D411D511D283999E93907490799E1D9
:102100005907A8F2C6609C2ED2CFAEEF8A1206C045
:10211000C3FD3CC09C2E689493F8C9CFDF7DD534B5
:10212000A9F580818D3239F4C061DF011296818179
:1021300062E070E006C0DF018B32C1F3119661E00E
:1021400070E080535D01A61AB70A8A30F8F4E0E81F
:10215000CE16ECE0DE065CF4B601660F771F660F64
:10216000771FC60ED71ECC0CDD1CC80ED11C5D011E
:10217000FFEFAF1ABF0A8C9180538A30A8F1C4FFD9
:1021800003C0D194C194D1080C0D1D1DC1FF09C01D
:10219000E114F10431F081E0A81AB108D701AD9241
:1021A000BC92CA01B9010E945811C370C33009F42E
:1021B00090584B015C0120E030E0A9010E945311CE
:1021C000882309F440C0C7ECD1E017FF05C0119582
:1021D00001951109CFEAD1E06E01B8E1CB1AD1081F
:1021E00080E2E82EF12C0FC0D501B1CFFE01259180
:1021F0003591459154910E191F09C501B4010E94F2
:10220000B9114B015C01D501C4010E151F0574F70E
:102210002497F594E794CC16DD06A9F78A2F880F4A
:102220008B2F881F8F3F49F020E030E0A901C501C6
:10223000B4010E945311811106C082E290E0909394
:10224000B5048093B404C501B401DF91CF911F910F
:102250000F91FF90EF90DF90CF90BF90AF909F9045
:102260008F90089591110C942612803219F08950A4
:102270008550C8F70895FB01DC014150504088F0BB
:102280008D9181341CF08B350CF4805E6591613446
:102290001CF06B350CF4605E861B611171F3990BB9
:1022A0000895881BFCCF0E94951108F481E00895E1
:1022B000E89409C097FB3EF49095809570956195E0
:1022C0007F4F8F4F9F4F9923A9F0F92F96E9BB2796
:1022D0009395F695879577956795B795F111F8CF12
:1022E000FAF4BB0F11F460FF1BC06F5F7F4F8F4F7D
:1022F0009F4F16C0882311F096E911C0772321F073
:102300009EE8872F762F05C0662371F096E8862F0A
:1023100070E060E02AF09A95660F771F881FDAF761
:10232000880F9695879597F90895990F0008550F8E
:10233000AA0BE0E8FEEF16161706E807F907C0F04B
:1023400012161306E407F50798F0621B730B840B53
:10235000950B39F40A2661F0232B242B252B21F42D
:1023600008950A2609F4A140A6958FEF811D811DCD
:1023700008950E94CC110C9440120E94321238F041
:102380000E94391220F0952311F00C9429120C941C
:102390002F1211240C9474120E94511270F3959F05
:1023A000C1F3950F50E0551F629FF001729FBB274C
:1023B000F00DB11D639FAA27F00DB11DAA1F649FE8
:1023C0006627B00DA11D661F829F2227B00DA11D9B
:1023D000621F739FB00DA11D621F839FA00D611D21
:1023E000221F749F3327A00D611D231F849F600D42
:1023F000211D822F762F6A2F11249F5750409AF06B
:10240000F1F088234AF0EE0FFF1FBB1F661F771FF6
:10241000881F91505040A9F79E3F510580F00C94C1
:1024200029120C9474125F3FE4F3983ED4F386951E
:1024300077956795B795F795E7959F5FC1F7FE2B61
:10244000880F911D9695879597F908959927882764
:10245000089597F99F6780E870E060E008959FEF26
:1024600080EC089500240A9416161706180609062B
:10247000089500240A9412161306140605060895FA
:10248000092E0394000C11F4882352F0BB0F40F482
:10249000BF2B11F460FF04C06F5F7F4F8F4F9F4FC2
:1024A000089557FD9058440F551F59F05F3F71F044
:1024B0004795880F97FB991F61F09F3F79F08795AB
:1024C0000895121613061406551FF2CF4695F1DF34
:1024D00008C0161617061806991FF1CF86957105C4
:1024E000610508940895E894BB2766277727CB01F8
:1024F00097F90895052E97FB1EF400940E949112FF
:1025000057FD07D00E94AC1207FC03D04EF40C9488
:10251000911250954095309521953F4F4F4F5F4F09
:10252000089590958095709561957F4F8F4F9F4F3F
:1025300008950E94CE12A59F900DB49F900DA49F68
:10254000800D911D11240895B7FF0C9499120E94DB
:102550009912821B930B0895A1E21A2EAA1BBB1B92
:10256000FD010DC0AA1FBB1FEE1FFF1FA217B3075F
:10257000E407F50720F0A21BB30BE40BF50B661F75
:10258000771F881F991F1A9469F760957095809539
:1025900090959B01AC01BD01CF010895A29FB001B0
:1025A000B39FC001A39F700D811D1124911DB29F87
:1025B000700D811D1124911D089597FB072E16F4AF
:1025C000009407D077FD09D00E94F91207FC05D0CE
:1025D0003EF4909581959F4F0895709561957F4F3A
:1025E0000895EE0FFF1F881F8BBF0790F691E02D17
:1025F0001994AA1BBB1B51E107C0AA1FBB1FA6173A
:10260000B70710F0A61BB70B881F991F5A95A9F79B
:1026100080959095BC01CD0108955058BB27AA27FD
:102620000E9425130C9440120E94321238F00E942E
:10263000391220F039F49F3F19F426F40C942F122C
:102640000EF4E095E7FB0C942912E92F0E94511239
:1026500058F3BA17620773078407950720F079F4D7
:10266000A6F50C9473120EF4E0950B2EBA2FA02D44
:102670000B01B90190010C01CA01A0011124FF272F
:10268000591B99F0593F50F4503E68F11A16F0402A
:10269000A22F232F342F4427585FF3CF4695379529
:1026A0002795A795F0405395C9F77EF41F16BA0BEE
:1026B000620B730B840BBAF09150A1F0FF0FBB1F9C
:1026C000661F771F881FC2F70EC0BA0F621F731FE5
:1026D000841F48F4879577956795B795F7959E3F42
:1026E00008F0B0CF9395880F08F09927EE0F9795D3
:1026F000879508950E948E130C9440120E943912FF
:1027000058F00E94321240F029F45F3F29F00C94F7
:10271000291251110C9474120C942F120E94511210
:1027200068F39923B1F3552391F3951B550BBB2700
:10273000AA2762177307840738F09F5F5F4F220F45
:10274000331F441FAA1FA9F335D00E2E3AF0E0E83C
:1027500032D091505040E695001CCAF72BD0FE2F86
:1027600029D0660F771F881FBB1F2617370748071A
:10277000AB07B0E809F0BB0B802DBF01FF279358D2
:102780005F4F3AF09E3F510578F00C9429120C945B
:1027900074125F3FE4F3983ED4F38695779567957E
:1027A000B795F7959F5FC9F7880F911D9695879507
:1027B00097F90895E1E0660F771F881FBB1F621726
:1027C00073078407BA0720F0621B730B840BBA0BE4
:1027D000EE1F88F7E09508950E94F3136894B111F5
:1027E0000C94741208950E94591288F09F5798F023
:1027F000B92F9927B751B0F0E1F0660F771F881F06
:10280000991F1AF0BA95C9F714C0B13091F00E941F
:102810007312B1E008950C947312672F782F8827F4
:10282000B85F39F0B93FCCF3869577956795B39546
:10283000D9F73EF490958095709561957F4F8F4FB5
:102840009F4F08950F931F93CF93DF93823091058D
:1028500010F482E090E0E091B804F091B90430E027
:1028600020E0B0E0A0E0309799F42115310509F49B
:102870004AC0281B390B24303105D8F58A819B8149
:102880006115710589F1FB0193838283FE0111C0FB
:10289000408151810281138148175907E0F04817A0
:1028A000590799F4109761F012960C9312971396AA
:1028B0001C933296CF01DF91CF911F910F91089514
:1028C0000093B8041093B904F4CF2115310551F0E9
:1028D0004217530738F0A901DB019A01BD01DF015E
:1028E000F801C1CFEF01F9CF9093B9048093B804F8
:1028F000CDCFFE01E20FF31F819391932250310956
:1029000039832883D7CF2091B6043091B704232B85
:1029100041F420910202309103023093B7042093D6
:10292000B60420910002309101022115310541F4D5
:102930002DB73EB74091040250910502241B350B80
:10294000E091B604F091B704E217F307A0F42E1B50
:102950003F0B2817390778F0AC014E5F5F4F241703
:10296000350748F04E0F5F1F5093B7044093B604ED
:10297000819391939FCFF0E0E0E09CCFCF93DF93E2
:102980000097E9F0FC01329713821282A091B804FB
:10299000B091B904ED0130E020E01097A1F420815E
:1029A0003181820F931F2091B6043091B70428170C
:1029B000390709F061C0F093B704E093B604DF91E2
:1029C000CF910895EA01CE17DF07E8F54A815B81D0
:1029D0009E0141155105B1F7E901FB83EA83499155
:1029E0005991C40FD51FEC17FD0761F480819181C7
:1029F0000296840F951FE9019983888382819381D0
:102A00009B838A83F0E0E0E012968D919C9113976E
:102A10000097B9F52D913C911197CD010296820F47
:102A2000931F2091B6043091B7042817390739F65F
:102A3000309751F51092B9041092B804B093B704CE
:102A4000A093B604BCCFD383C28340815181840F4D
:102A5000951FC817D90761F44E5F5F4F8881998130
:102A6000480F591F518340838A819B8193838283BE
:102A70002115310509F0B0CFF093B904E093B80403
:102A80009ECFFD01DC01C0CF13821282D7CF4F92BF
:102A90005F926F927F928F929F92AF92BF92CF92EE
:102AA000DF92EF92FF920F931F93CF93DF938C01EE
:102AB000009799F4CB01DF91CF911F910F91FF9077
:102AC000EF90DF90CF90BF90AF909F908F907F90CE
:102AD0006F905F904F900C942214FC01E60FF71F4B
:102AE0009C0122503109E217F30708F4AEC0D90166
:102AF000CD91DC911197C617D70720F1C530D105CC
:102B000078F0CE0104978617970750F0C61BD70BB5
:102B10002297C193D1936D937C93CF010E94BE14F1
:102B2000C801DF91CF911F910F91FF90EF90DF903F
:102B3000CF90BF90AF909F908F907F906F905F905D
:102B40004F9008955B01AC1ABD0A4C018C0E9D1E7E
:102B5000A091B804B091B904512C412CF12CE12C76
:102B6000109731F58091B6049091B70488159905B6
:102B700009F05CC04616570608F058C08091000264
:102B800090910102009741F48DB79EB740910402E5
:102B900050910502841B950BE817F90708F055C002
:102BA000F093B704E093B604F90171836083B8CF62
:102BB0008D919C91119712966C90129713967C9020
:102BC0001397A815B90559F56C0142E0C40ED11C44
:102BD000CA14DB0420F1AC014A195B09DA01129630
:102BE000159780F06282738251834083D9016D937F
:102BF0007C93E114F10471F0D7011396FC93EE93EA
:102C000012978ECF22968C0F9D1FF901918380839E
:102C1000F301EFCFF093B904E093B80481CF4816E5
:102C2000590608F42C017D01D3019ACFCB010E94F3
:102C300022147C01009749F0AE01B8010E942816C9
:102C4000C8010E94BE1487016BCF10E000E068CF7E
:102C5000FB01DC0102C001900D9241505040D8F7B9
:102C60000895FB01DC018D91019080190110D9F3C9
:102C7000990B0895FB01DC0101900D920020E1F712
:102C80000895FB01DC014150504048F001900D9245
:102C90000020C9F701C01D9241505040E0F708954F
:102CA00011E0C7EFD1E000E006C0802FFE010E94D6
:102CB000F1122196011DC83FD10780E00807A9F74E
:042CC000F894FFCFB6
:102CC4000000BA04800000000000D5033F036C0339
:102CD40022049D037B038F035265616479000D0A0E
:0C2CE400006D00484F4C4C3A20006C0082
:00000001FF
